:100000000C9434000C9451000C94E5050C945100B0
:100010000C9451000C9451000C9451000C9451001C
:100020000C9451000C9451000C9451000C9451000C
:100030000C9451000C948E050C9451000C945100BA
:100040000C9451000C9451000C9451000C945100EC
:100050000C9451000C9451000C9451000C945100DC
:100060000C9451000C94510011241FBECFEFD8E026
:10007000DEBFCDBF11E0A0E0B1E0EEEFF6E102C0DF
:1000800005900D92A631B107D9F722E0A6E1B1E0C3
:1000900001C01D92A53DB207E1F70E942E070C9406
:1000A0007D0B0C940000CF92DF92EF92FF92CF93E2
:1000B000DF93CDB7DEB762970FB6F894DEBF0FBE01
:1000C000CDBF1A82198280911601882F90E082306C
:1000D000910509F4A5C08330910534F4009761F0CF
:1000E000019709F43FC0FEC38330910509F4D5C0E0
:1000F000049709F465C2F6C31A8219822DC089815A
:100100009A81880F991F880F991F8B5D9E4FFC0164
:10011000108289819A81880F991F880F991F8A5DA3
:100120009E4FFC01108289819A81880F991F880F48
:10013000991F895D9E4FFC01108289819A81880FE9
:10014000991F880F991F885D9E4FFC01108289813D
:100150009A8101969A83898389819A81843691054F
:1001600074F2F8C31A82198255C089819A81880F66
:10017000991F880F991F8B549D4FFC012081898105
:100180009A81880F991F880F991F8B5D9E4FFC01E4
:10019000208389819A81880F991F880F991F8A541B
:1001A0009D4FFC01208189819A81880F991F880FBA
:1001B000991F8A5D9E4FFC01208389819A81880F57
:1001C000991F880F991F89549D4FFC0120818981B7
:1001D0009A81880F991F880F991F895D9E4FFC0196
:1001E000208389819A81880F991F880F991F8854CD
:1001F0009D4FFC01208189819A81880F991F880F6A
:10020000991F885D9E4FFC01208389819A81019608
:100210009A83898389819A8105970CF4A6CF9AC322
:100220001A82198235C02091C90289819A81880F6A
:10023000991F880F991F8B5D9E4FFC012083209191
:10024000CA0289819A81880F991F880F991F8A5D38
:100250009E4FFC0120832091CB0289819A81880FD7
:10026000991F880F991F895D9E4FFC012083209163
:10027000CC0289819A81880F991F880F991F885D08
:100280009E4FFC01208389819A8101969A838983FC
:1002900089819A8105973CF25DC38091D102282F14
:1002A00030E08091CD02882F90E0A901481B590BC6
:1002B000CA01092E000CAA0BBB0BBC01CD010E9488
:1002C000840ADC01CB0120E030E048EC52E4BC01C0
:1002D000CD010E94DA09DC01CB018B839C83AD83C5
:1002E000BE838091D202282F30E08091CE02882FE9
:1002F00090E0F901E81BF90BCF01092E000CAA0BC5
:10030000BB0BBC01CD010E94840ADC01CB0120E0C3
:1003100030E048EC52E4BC01CD010E94DA09DC0176
:10032000CB018F839887A987BA878091D302282F22
:1003300030E08091CF02882F90E0A901481B590B33
:10034000CA01092E000CAA0BBB0BBC01CD010E94F7
:10035000840ADC01CB0120E030E048EC52E4BC012F
:10036000CD010E94DA09DC01CB018B879C87AD8728
:10037000BE878091D402282F30E08091D002882F50
:1003800090E0F901E81BF90BCF01092E000CAA0B34
:10039000BB0BBC01CD010E94840ADC01CB0120E033
:1003A00030E048EC52E4BC01CD010E94DA09DC01E6
:1003B000CB018F87988BA98BBA8B1A821982F9C0CF
:1003C0008091CD02882F90E0092E000CAA0BBB0B68
:1003D000BC01CD010E94840A6B017C0189819A8154
:1003E000092E000CAA0BBB0BBC01CD010E94840A94
:1003F000DC01CB012B813C814D815E81BC01CD01B3
:100400000E94100BDC01CB019C01AD01C701B601BC
:100410000E946E09DC01CB01BC01CD010E944C0A97
:10042000DC01CB01282F89819A81880F991F880FC1
:10043000991F8B5D9E4FFC0120838091CE02882FF7
:1004400090E0092E000CAA0BBB0BBC01CD010E9451
:10045000840A6B017C0189819A81092E000CAA0B08
:10046000BB0BBC01CD010E94840ADC01CB012F81B2
:10047000388549855A85BC01CD010E94100BDC01ED
:10048000CB019C01AD01C701B6010E946E09DC01E0
:10049000CB01BC01CD010E944C0ADC01CB01282F0D
:1004A00089819A81880F991F880F991F8A5D9E4FB5
:1004B000FC0120838091CF02882F90E0092E000C50
:1004C000AA0BBB0BBC01CD010E94840A6B017C010D
:1004D00089819A81092E000CAA0BBB0BBC01CD01AE
:1004E0000E94840ADC01CB012B853C854D855E850D
:1004F000BC01CD010E94100BDC01CB019C01AD01C0
:10050000C701B6010E946E09DC01CB01BC01CD011F
:100510000E944C0ADC01CB01282F89819A81880F27
:10052000991F880F991F895D9E4FFC012083809140
:10053000D002882F90E0092E000CAA0BBB0BBC0147
:10054000CD010E94840A6B017C0189819A81092E68
:10055000000CAA0BBB0BBC01CD010E94840ADC017C
:10056000CB012F85388949895A89BC01CD010E9468
:10057000100BDC01CB019C01AD01C701B6010E944B
:100580006E09DC01CB01BC01CD010E944C0ADC01EB
:10059000CB01282F89819A81880F991F880F991F75
:1005A000885D9E4FFC01208389819A8101969A8300
:1005B000898389819A81843691050CF401CFCAC15F
:1005C0008091D102282F30E08091CD02882F90E0D9
:1005D000A901481B590BCA01092E000CAA0BBB0B21
:1005E000BC01CD010E94840ADC01CB0120E030E097
:1005F00040E850E4BC01CD010E94DA09DC01CB01E6
:100600008B839C83AD83BE838091D202282F30E000
:100610008091CE02882F90E0F901E81BF90BCF0101
:10062000092E000CAA0BBB0BBC01CD010E94840A51
:10063000DC01CB0120E030E040E850E4BC01CD011A
:100640000E94DA09DC01CB018F839887A987BA87DA
:100650008091D302282F30E08091CF02882F90E044
:10066000A901481B590BCA01092E000CAA0BBB0B90
:10067000BC01CD010E94840ADC01CB0120E030E006
:1006800040E850E4BC01CD010E94DA09DC01CB0155
:100690008B879C87AD87BE878091D402282F30E05E
:1006A0008091D002882F90E0F901E81BF90BCF016F
:1006B000092E000CAA0BBB0BBC01CD010E94840AC1
:1006C000DC01CB0120E030E040E850E4BC01CD018A
:1006D0000E94DA09DC01CB018F87988BA98BBA8B3A
:1006E0001A821982F9C08091CD02882F90E0092EDC
:1006F000000CAA0BBB0BBC01CD010E94840A6B014C
:100700007C0189819A81092E000CAA0BBB0BBC01CC
:10071000CD010E94840ADC01CB012B813C814D81FB
:100720005E81BC01CD010E94100BDC01CB019C015C
:10073000AD01C701B6010E946E09DC01CB01BC010D
:10074000CD010E944C0ADC01CB01282F89819A81BE
:10075000880F991F880F991F8B5D9E4FFC01208386
:100760008091CE02882F90E0092E000CAA0BBB0BC3
:10077000BC01CD010E94840A6B017C0189819A81B0
:10078000092E000CAA0BBB0BBC01CD010E94840AF0
:10079000DC01CB012F81388549855A85BC01CD010B
:1007A0000E94100BDC01CB019C01AD01C701B60119
:1007B0000E946E09DC01CB01BC01CD010E944C0AF4
:1007C000DC01CB01282F89819A81880F991F880F1E
:1007D000991F8A5D9E4FFC0120838091CF02882F54
:1007E00090E0092E000CAA0BBB0BBC01CD010E94AE
:1007F000840A6B017C0189819A81092E000CAA0B65
:10080000BB0BBC01CD010E94840ADC01CB012B850E
:100810003C854D855E85BC01CD010E94100BDC013D
:10082000CB019C01AD01C701B6010E946E09DC013C
:10083000CB01BC01CD010E944C0ADC01CB01282F69
:1008400089819A81880F991F880F991F895D9E4F12
:10085000FC0120838091D002882F90E0092E000CAB
:10086000AA0BBB0BBC01CD010E94840A6B017C0169
:1008700089819A81092E000CAA0BBB0BBC01CD010A
:100880000E94840ADC01CB012F85388949895A8965
:10089000BC01CD010E94100BDC01CB019C01AD011C
:1008A000C701B6010E946E09DC01CB01BC01CD017C
:1008B0000E944C0ADC01CB01282F89819A81880F84
:1008C000991F880F991F885D9E4FFC0120838981A5
:1008D0009A8101969A83898389819A8105970CF47C
:1008E00002CF38C01A8219822DC089819A81880F5F
:1008F000991F880F991F8B5D9E4FFC011082898183
:100900009A81880F991F880F991F8A5D9E4FFC015D
:10091000108289819A81880F991F880F991F895D9C
:100920009E4FFC01108289819A81880F991F880F40
:10093000991F885D9E4FFC01108289819A810196E2
:100940009A83898389819A818436910574F2109201
:1009500016010000000062960FB6F894DEBF0FBECD
:10096000CDBFDF91CF91FF90EF90DF90CF900895B2
:10097000CF93DF93CDB7DEB784E290E023E0FC01B4
:10098000208387E290E02FE0FC0120838AE290E060
:1009900024EFFC0120830000DF91CF910895CF93D5
:1009A000DF93CDB7DEB78CE490E020E4FC01208338
:1009B0000000DF91CF910895CF93DF93CDB7DEB7DD
:1009C00089E690E028E0FC0120838DE390E02DE3B0
:1009D00030E0F90120812260FC0120830000DF91DA
:1009E000CF910895CF93DF93CDB7DEB781E890E044
:1009F00021E830E0F90120812260FC01208384E8B5
:100A000090E0FC01118210828FE690E02FE630E04A
:100A1000F90120812160FC0120830000DF91CF914A
:100A20000895CF93DF93CDB7DEB784EC90E023E356
:100A300030E0FC013183208381EC90E021EC30E058
:100A4000F90120812860FC01208382EC90E022ECF7
:100A500030E0F90120812660FC0120830000DF9155
:100A6000CF910895CF93DF9300D0CDB7DEB71A8230
:100A700019822EC089819A81880F991F880F991F2A
:100A80008B549D4FFC01108289819A81880F991F98
:100A9000880F991F8A549D4FFC01108289819A8189
:100AA000880F991F880F991F89549D4FFC01108250
:100AB00089819A81880F991F880F991F88549D4FAB
:100AC00022E3FC01208389819A8101969A8389839C
:100AD00089819A81059774F28AE08093C902109205
:100AE000CA028AE08093CB021092CC021092CD020F
:100AF0001092CE028AE08093CF021092D002109220
:100B0000D1028AE08093D2021092D3021092D402D2
:100B100000000F900F90DF91CF9108951F920F92D8
:100B200000905F000F9211242F933F934F935F9398
:100B30006F937F938F939F93AF93BF93EF93FF93A5
:100B4000CF93DF93CDB7DEB785E290E025E230E0CA
:100B5000F901308122E02327FC01208380911C01D0
:100B60008823F1F480910001882361F080911701BE
:100B70008F5F80931701809117018F3578F0109265
:100B800000010CC080911701815080931701809162
:100B90001701882319F481E0809300010E94E50584
:100BA0000000DF91CF91FF91EF91BF91AF919F91A5
:100BB0008F917F916F915F914F913F912F910F9006
:100BC00000925F000F901F9018951F920F92009057
:100BD0005F000F9211242F933F934F935F938F9356
:100BE0009F93EF93FF93CF93DF93CDB7DEB781E071
:100BF00080931C0180911B01882309F01AC1809108
:100C00001801882F90E08130910509F440C08230AE
:100C100091051CF4892B49F0CFC08230910509F46D
:100C200068C0039709F497C0C7C08BE290E0209199
:100C30001A01422F50E020911701222F30E0240F9B
:100C4000351F220F331F220F331F2A5D3E4FF9013C
:100C50002081207FFC01208388E290E020911A010E
:100C6000422F50E020911701222F30E0240F351F32
:100C7000220F331F220F331F2A5D3E4FF9012081BF
:100C80002F70FC01208381E080931801A0C08BE2CB
:100C900090E020911A01422F50E020911701222F5D
:100CA00030E0240F351F220F331F220F331F2B5D1F
:100CB0003E4FF9012081207FFC01208388E290E0F3
:100CC00020911A01422F50E020911701222F30E08D
:100CD000240F351F220F331F220F331F2B5D3E4F72
:100CE000F90120812F70FC01208382E0809318019C
:100CF0006EC08BE290E020911A01422F50E02091CB
:100D00001701222F30E0240F351F220F331F220F2F
:100D1000331F295D3E4FF9012081207FFC01208394
:100D200088E290E020911A01422F50E020911701B3
:100D3000222F30E0240F351F220F331F220F331FC5
:100D4000295D3E4FF90120812F70FC01208383E053
:100D5000809318013CC08BE290E020911A01422F51
:100D600050E020911701222F30E0240F351F220F71
:100D7000331F220F331F285D3E4FF9012081207F52
:100D8000FC01208388E290E020911A01422F50E07C
:100D900020911701222F30E0240F351F220F331F1F
:100DA000220F331F285D3E4FF90120812F70FC0177
:100DB0002083109218010BC08BE290E0FC0110829E
:100DC00088E290E0FC0110821092180100008BE292
:100DD00090E02BE230E0F90120812460FC012083C7
:100DE0008BE290E02BE230E0F90120812B7FFC01C7
:100DF000208380911801882301F5809119018E309C
:100E000090F01092190180911A01843030F4809191
:100E10001A018F5F80931A0110C010921A0181E0AD
:100E200080931B010AC0809119018F5F8093190183
:100E300004C010921B0110921C010000DF91CF91A1
:100E4000FF91EF919F918F915F914F913F912F91E2
:100E50000F9000925F000F901F901895CF93DF9333
:100E6000CDB7DEB70E94B8040E94CF040E94DC0414
:100E70000E94F2040E9411050E943205789410929B
:100E8000160181E890E021E830E0F9012081287F17
:100E9000FC01208381E080931E010E947D078091E8
:100EA0001E01882321F480911F018823B1F30E9441
:100EB000530080911601833091F081E091E00E940F
:100EC0004E0981E890E021E830E0F9012081287F97
:100ED000FC012083109217010E94E50509C081E8FA
:100EE00090E021E830E0F90120812260FC012083BC
:100EF00010921E0110921F01D0CFCF93DF931F924B
:100F0000CDB7DEB78DE490E0FC01808188230CF042
:100F1000A4C18DE490E02DE430E0F90120812F7729
:100F2000FC0120838EE490E0FC0180818983809124
:100F30001D01882F90E08230910589F18330910561
:100F40002CF4009771F00197C1F083C184309105B2
:100F500009F449C084309105A4F1059709F455C0FE
:100F600078C1898188230CF077C189818F7780933C
:100F7000200181E080931D016FC1898188233CF0AD
:100F800089818093210182E080931D0166C189815E
:100F90008F778093200181E080931D015EC189815C
:100FA00088233CF089818093220183E080931D0196
:100FB00054C189818F778093200181E080931D0146
:100FC0004CC1898188233CF089818093230184E08E
:100FD00080931D0142C189818F778093200181E038
:100FE00080931D013AC1898188233CF089818093D7
:100FF000240185E080931D0130C189818F77809322
:10100000200181E080931D0128C18981882F90E013
:10101000807F9927892B09F00EC1809120018530AE
:1010200008F072C080912001882F90E02981222F42
:1010300030E03695322F222737952795322F209191
:101040002101232B880F991F880F991F8B549D4FC7
:10105000FC01208380912001882F90E02981222F9C
:1010600030E0227033270024369527950794369573
:1010700027950794322F202D322F20912201232BE8
:10108000880F991F880F991F8A549D4FFC01208358
:1010900080912001882F90E02981222F30E0247058
:1010A0003327220F331F22953295307F3227207F3E
:1010B0003227322F20912301232B880F991F880F6D
:1010C000991F89549D4FFC01208380912001882F16
:1010D00090E02981222F30E0287033272295329525
:1010E000307F3227207F3227322F20912401232B7B
:1010F000880F991F880F991F88549D4FFC012083EA
:1011000081E080931E0194C080912001843608F410
:101110007FC080912001873608F07AC0809120013D
:10112000882F90E0845691092981222F30E036954E
:10113000322F222737952795322F20912101232BFB
:10114000880F991F880F991F87539D4FFC0120839B
:1011500080912001882F90E0845691092981222FC7
:1011600030E0227033270024369527950794369572
:1011700027950794322F202D322F20912201232BE7
:10118000880F991F880F991F86539D4FFC0120835C
:1011900080912001882F90E0845691092981222F87
:1011A00030E024703327220F331F22953295307F91
:1011B0003227207F3227322F20912301232B880FC3
:1011C000991F880F991F85539D4FFC0120838091A3
:1011D0002001882F90E0845691092981222F30E048
:1011E0002870332722953295307F3227207F32278F
:1011F000322F20912401232B880F991F880F991FCC
:1012000084539D4FFC01208381E080931E0110C018
:1012100080912001883760F0809120018D3740F463
:101220008091200188578093160181E080931F01EF
:1012300010921D0112C08981882344F489818F771F
:101240008093200181E080931D0107C010921D0151
:1012500004C010921D0101C0000000000F90DF913A
:10126000CF910895CF93DF931F92CDB7DEB78983D7
:10127000000080EC90E0FC018081882F90E080727B
:101280009927892BB1F386EC90E02981FC0120831A
:1012900080E090E00F90DF91CF910895CF93DF939E
:1012A00000D0CDB7DEB79A8389830BC089819A813C
:1012B000FC0180810E94320989819A8101969A837A
:1012C000898389819A81FC018081882379F70000D4
:1012D0000F900F90DF91CF9108955058BB27AA2708
:1012E0000E9485090C94D60A0E94C80A38F00E9410
:1012F000CF0A20F039F49F3F19F426F40C94C50A64
:101300000EF4E095E7FB0C94BF0AE92F0E94E70A70
:1013100058F3BA17620773078407950720F079F42A
:10132000A6F50C94090B0EF4E0950B2EBA2FA02D08
:101330000B01B90190010C01CA01A0011124FF2782
:10134000591B99F0593F50F4503E68F11A16F0407D
:10135000A22F232F342F4427585FF3CF469537957C
:101360002795A795F0405395C9F77EF41F16BA0B41
:10137000620B730B840BBAF09150A1F0FF0FBB1FEF
:10138000661F771F881FC2F70EC0BA0F621F731F38
:10139000841F48F4879577956795B795F7959E3F95
:1013A00008F0B0CF9395880F08F09927EE0F979526
:1013B000879508950E94EE090C94D60A0E94CF0AE0
:1013C00058F00E94C80A40F029F45F3F29F00C94BD
:1013D000BF0A51110C940A0B0C94C50A0E94E70A2B
:1013E00068F39923B1F3552391F3951B550BBB2754
:1013F000AA2762177307840738F09F5F5F4F220F99
:10140000331F441FAA1FA9F335D00E2E3AF0E0E88F
:1014100032D091505040E695001CCAF72BD0FE2FD9
:1014200029D0660F771F881FBB1F2617370748076D
:10143000AB07B0E809F0BB0B802DBF01FF27935825
:101440005F4F3AF09E3F510578F00C94BF0A0C9420
:101450000A0B5F3FE4F3983ED4F386957795679542
:10146000B795F7959F5FC9F7880F911D969587955A
:1014700097F90895E1E0660F771F881FBB1F621779
:1014800073078407BA0720F0621B730B840BBA0B37
:10149000EE1F88F7E09508950E94530A6894B111F1
:1014A0000C940A0B08950E94EF0A88F09F5798F059
:1014B000B92F9927B751B0F0E1F0660F771F881F59
:1014C000991F1AF0BA95C9F714C0B13091F00E9473
:1014D000090BB1E008950C94090B672F782F88272A
:1014E000B85F39F0B93FCCF3869577956795B3959A
:1014F000D9F73EF490958095709561957F4F8F4F09
:101500009F4F0895E89409C097FB3EF4909580950D
:10151000709561957F4F8F4F9F4F9923A9F0F92FB9
:1015200096E9BB279395F695879577956795B79537
:10153000F111F8CFFAF4BB0F11F460FF1BC06F5F1D
:101540007F4F8F4F9F4F16C0882311F096E911C02F
:10155000772321F09EE8872F762F05C0662371F050
:1015600096E8862F70E060E02AF09A95660F771F64
:10157000881FDAF7880F9695879597F9089597F958
:101580009F6780E870E060E008959FEF80EC089529
:1015900000240A9416161706180609060895002452
:1015A0000A9412161306140605060895092E0394CC
:1015B000000C11F4882352F0BB0F40F4BF2B11F440
:1015C00060FF04C06F5F7F4F8F4F9F4F089557FD9F
:1015D0009058440F551F59F05F3F71F04795880FA1
:1015E00097FB991F61F09F3F79F087950895121638
:1015F00013061406551FF2CF4695F1DF08C01616E4
:1016000017061806991FF1CF869571056105089494
:101610000895E894BB2766277727CB0197F90895AB
:101620000E94230B0C94D60A0E94C80A38F00E942C
:10163000CF0A20F0952311F00C94BF0A0C94C50A30
:1016400011240C940A0B0E94E70A70F3959FC1F3D2
:10165000950F50E0551F629FF001729FBB27F00D60
:10166000B11D639FAA27F00DB11DAA1F649F6627B5
:10167000B00DA11D661F829F2227B00DA11D621F04
:10168000739FB00DA11D621F839FA00D611D221FBE
:10169000749F3327A00D611D231F849F600D211DA2
:1016A000822F762F6A2F11249F5750409AF0F1F025
:1016B00088234AF0EE0FFF1FBB1F661F771F881F8E
:1016C00091505040A9F79E3F510580F00C94BF0AFD
:1016D0000C940A0B5F3FE4F3983ED4F3869577951C
:1016E0006795B795F795E7959F5FC1F7FE2B880F34
:0E16F000911D9695879597F90895F894FFCF70
:1016FE0001636F756E746572206465616B746976D3
:06170E00696572740A0017
:00000001FF
