S012000046697273745F546573742E737265630B
S11300000C9434000C94BA020C9446000C944600F0
S11300100C9446000C9446000C9446000C94460044
S11300200C9446000C9446000C9446000C94460034
S11300300C9446000C9446000C9446000C94460024
S11300400C9446000C94B0020C9446000C944600A8
S11300500C9446000C9446000C9446000C94460004
S11300600C9446000C94460011241FBECFEFD8E038
S1130070DEBFCDBF22E0A0E0B1E001C01D92AE3CE6
S1130080B207E1F70E9494020C9462040C940000FD
S113009014B817B81AB808950DB407FEC0C08DB5CA
S11300A08F778DBD9EB580910801823001F128F4CF
S11300B0882349F0813081F0B0C0843071F110F1AF
S11300C08530B1F1AAC099230CF0A9C09093040122
S11300D081E0809308010895992334F090930301FB
S11300E082E08093080108951092080108959923ED
S11300F034F09093020183E08093080108951092F4
S113010008010895992334F09093010184E08093C9
S113011008010895109208010895992334F09093EA
S1130120000185E080930801089510920801089564
S1130130892F807F09F06EC0209104012A3070F568
S113014030E0220F331F220F331FF901E656FD4F13
S113015080E8989F9001112480910301282B20832B
S1130160892F82708295880F880F807C20910201EC
S1130170822B8183892F84708295880F807E2091C1
S11301800101822B828398709295907F8091000167
S1130190982B938381E0809307013CC08CE9820F04
S11301A0833080F5E22FF0E0EE0FFF1FEE0FFF1F0C
S11301B0EE5CFE4F80E8989F90011124809103012A
S11301C0282B2083892F8270282F2295220F220F1B
S11301D0207C80910201822B8183892F8470282FB7
S11301E02295220F207E80910101822B82839870B8
S11301F09295907F80910001982B938381E0809366
S1130200070108C02857253028F42093090181E00C
S11302108093060110920801089510920801089530
S11302204F925F926F927F928F929F92AF92BF9202
S1130230CF92DF92EF92FF920F931F93CF93DF93AE
S1130240CDB7DEB72E970FB6F894DEBF0FBECDBF85
S113025080910901823099F128F4882349F0813092
S1130260A1F04BC18330F1F1843009F4C1C045C120
S1130270EAE0F1E08AE992E01082118212821382AC
S11302803496E817F907C1F738C1EAE9F2E0AAE0C1
S1130290B1E022EC32E080818C93818111968C93C1
S11302A01197828112968C931297838113968C9363
S11302B0139734961496E217F30769F71EC1EAE917
S11302C0F2E05081418132812381EAE0F1E082E36E
S11302D091E050834183328323833496E817F907EE
S11302E0C1F70BC18090C602912C6091CA0270E0E4
S11302F068197909072E000C880B990B0E94690371
S113030069837A838B839C834090C7029091C8024F
S11303108091C9022AE031E03E872D8700E010E099
S1130320092C000CAA08BB08512C612C712C292F14
S113033030E040E050E02D833E834F835887282FE0
S113034030E040E050E029873A874B875C87B8016A
S1130350012E000C880B990B0E94690329813A81B4
S11303604B815C810E94F5036B017C01C501B401E2
S11303700E946903A70196010E94C5020E943103ED
S1130380ED85FE856083C301B2010E946903A70164
S113039096010E94C5020E943103ED85FE856183AA
S11303A06D817E818F8198850E946903A7019601E2
S11303B00E94C5020E943103ED85FE856283698532
S11303C07A858B859C850E946903A70196010E940A
S11303D0C5020E943103ED85FE8563830F5F1F4FC5
S11303E03496FE87ED870436110509F0B0CF85C039
S11303F08090C602912C6091CA0270E06819790954
S1130400072E000C880B990B0E94690369837A8379
S11304108B839C834090C7029091C8028091C9024B
S11304202AE031E03E872D8700E010E0092C000C23
S1130430AA08BB08512C612C712C292F30E040E014
S113044050E02D833E834F835887282F30E040E0CF
S113045050E029873A874B875C87B801012E000C4E
S1130460880B990B0E94690329813A814B815C8135
S11304700E94F5036B017C01C501B4010E9469036C
S1130480A70196010E94C5020E943103ED85FE85F5
S11304906083C301B2010E946903A70196010E940F
S11304A0C5020E943103ED85FE8561836D817E81E5
S11304B08F8198850E946903A70196010E94C50255
S11304C00E943103ED85FE85628369857A858B857B
S11304D09C850E946903A70196010E94C5020E949F
S11304E03103ED85FE8563830F5F1F4F3496FE87CE
S11304F0ED870A30110509F0B0CF2E960FB6F894A7
S1130500DEBF0FBECDBFDF91CF911F910F91FF9042
S1130510EF90DF90CF90BF90AF909F908F907F909F
S11305206F905F904F9008950E94480080E48CBDC6
S113053078940E944C0080910701811104C080913D
S11305400601882331F010920701109206010E94DF
S1130550100180910901833061F310920501E9CF04
S11305601F920F920FB60F9211240F900FBE0F908F
S11305701F9018951F920F920FB60F9211240F908F
S11305800FBE0F901F9018955058BB27AA270E94A2
S1130590DC020C94BB030E94AD0338F00E94B40348
S11305A020F039F49F3F19F426F40C94AA030EF4B6
S11305B0E095E7FB0C94A403E92F0E94CC0358F3C5
S11305C0BA17620773078407950720F079F4A6F534
S11305D00C94EE030EF4E0950B2EBA2FA02D0B0114
S11305E0B90190010C01CA01A0011124FF27591B74
S11305F099F0593F50F4503E68F11A16F040A22F7A
S1130600232F342F4427585FF3CF469537952795EA
S1130610A795F0405395C9F77EF41F16BA0B620BE9
S1130620730B840BBAF09150A1F0FF0FBB1F661F30
S1130630771F881FC2F70EC0BA0F621F731F841F73
S113064048F4879577956795B795F7959E3F08F099
S1130650B0CF9395880F08F09927EE0F979587955B
S113066008950E9438036894B1110C94EF0308951F
S11306700E94D40388F09F5798F0B92F9927B75157
S1130680B0F0E1F0660F771F881F991F1AF0BA9532
S1130690C9F714C0B13091F00E94EE03B1E008959F
S11306A00C94EE03672F782F8827B85F39F0B93F91
S11306B0CCF3869577956795B395D9F73EF49095E5
S11306C08095709561957F4F8F4F9F4F0895E89463
S11306D009C097FB3EF490958095709561957F4F86
S11306E08F4F9F4F9923A9F0F92F96E9BB27939534
S11306F0F695879577956795B795F111F8CFFAF444
S1130700BB0F11F460FF1BC06F5F7F4F8F4F9F4F74
S113071016C0882311F096E911C0772321F09EE8D2
S1130720872F762F05C0662371F096E8862F70E038
S113073060E02AF09A95660F771F881FDAF7880F12
S11307409695879597F9089597F99F6780E870E0E3
S113075060E008959FEF80EC089500240A94161633
S1130760170618060906089500240A94121613069B
S1130770140605060895092E0394000C11F4882329
S113078052F0BB0F40F4BF2B11F460FF04C06F5F45
S11307907F4F8F4F9F4F089557FD9058440F551F1B
S11307A059F05F3F71F04795880F97FB991F61F0EF
S11307B09F3F79F087950895121613061406551F66
S11307C0F2CF4695F1DF08C0161617061806991FD2
S11307D0F1CF86957105610508940895E894BB27C7
S11307E066277727CB0197F908950E9408040C9493
S11307F0BB030E94AD0338F00E94B40320F095239C
S113080011F00C94A4030C94AA0311240C94EF0388
S11308100E94CC0370F3959FC1F3950F50E0551FD0
S1130820629FF001729FBB27F00DB11D639FAA2741
S1130830F00DB11DAA1F649F6627B00DA11D661F90
S1130840829F2227B00DA11D621F739FB00DA11DB1
S1130850621F839FA00D611D221F749F3327A00D6B
S1130860611D231F849F600D211D822F762F6A2F07
S113087011249F5750409AF0F1F088234AF0EE0F6C
S1130880FF1FBB1F661F771F881F91505040A9F799
S11308909E3F510580F00C94A4030C94EF035F3F3A
S11308A0E4F3983ED4F3869577956795B795F795D5
S11308B0E7959F5FC1F7FE2B880F911D969587954D
S10B08C097F90895F894FFCFA5
S9030000FC
