S01D0000636C757374657277696E6B5F6877726566305F76342E7372656398
S11300000C9444000C9461000C9469050C946100F8
S11300100C9461000C9461000C9461000C946100D8
S11300200C9461000C9461000C9461000C946100C8
S11300300C9461000C9461000C9461000C946100B8
S11300400C9461000C94A1040C9461000C94610064
S11300500C9461000C9461000C9461000C94610098
S11300600C9461000C946100E404EC041E05F40497
S113007001051E051E051E051E051E051E051E0581
S11300801E0509051005170511241FBECFEFD8E082
S1130090DEBFCDBF11E0A0E0B1E0EEE2F6E102C0C8
S11300A005900D92AE33B107D9F721E0AEE3B1E08C
S11300B001C01D92AA3CB207E1F70E945F060C94AE
S11300C0150B0C940000CF93DF931F92CDB7DEB7CE
S11300D08CE490E020ECFC0120838DE490E0FC01B2
S11300E010828EE490E0FC01808189838EE490E0AC
S11300F0FC01808189838EE490E0FC01108284E21B
S113010090E024E230E0F90120812061FC012083A9
S11301100F90DF91CF910895CF93DF93CDB7DEB7E2
S113012080EC90E020E4FC01208381EC90E028E165
S1130130FC01208382EC90E026E0FC01208384EC27
S113014090E021E830E0FC01318320838AE290E0F2
S11301502AE230E0F90120812260FC0120838AE256
S113016090E02AE230E0F90120812E7FFC01208317
S11301708BE290E02BE230E0F90120812D7FFC013D
S11301802083DF91CF910895CF93DF93CDB7DEB76E
S113019084E290E024E230E0F90120812360FC0154
S11301A0208385E290E025E230E0F901208121609E
S11301B0FC01208385E290E025E230E0F901208112
S11301C02D7FFC012083DF91CF910895CF93DF939E
S11301D0CDB7DEB785E290E025E230E0F901208179
S11301E02E7FFC012083DF91CF910895CF93DF937D
S11301F0CDB7DEB785E290E025E230E0F901208159
S11302002160FC012083DF91CF9108958F929F920A
S1130210AF92BF92CF92DF92EF92FF920F931F9310
S1130220CF93DF931F92CDB7DEB7898380E890E048
S113023022E8FC01208381E890E028E0FC0120838F
S113024082E890E0FC01108284E890E0FC011182D5
S113025010820F2EF8E88F2E912CF02D8981882F93
S113026090E0A0E0B0E01F921F9221E02F932FEFC7
S11302702F93A12CB12C650114E6E12EF12C00E0A2
S113028010E020E030E0A901BC01CD010E94510240
S11302900F900F900F900F90DC01CB01F40191832C
S11302A080838FE690E0FC0110820F90DF91CF9164
S11302B01F910F91FF90EF90DF90CF90BF90AF9080
S11302C09F908F900895CF93DF93CDB7DEB781E8E9
S11302D090E021E830E0F90120812160FC012083D5
S11302E0DF91CF9108958F929F92AF92BF92CF9258
S11302F0DF92EF92FF920F931F93CF93DF931F929E
S1130300CDB7DEB789830F2EF8E88F2E912CF02D10
S11303108981882F90E0A0E0B0E01F921F9221E035
S11303202F932FEF2F93A12CB12C650114E6E12E0E
S1130330F12C00E010E020E030E0A901BC01CD0187
S11303400E9451020F900F900F900F90DC01CB018F
S1130350F401918380830F90DF91CF911F910F91CE
S1130360FF90EF90DF90CF90BF90AF909F908F90D1
S11303700895CF93DF93CDB7DEB78CE790E026E600
S1130380FC0120838AE790E027E8FC0120838BE7C7
S113039090E0FC011082DF91CF910895CF93DF9319
S11303A0CDB7DEB78AE790E02AE730E0F901208193
S11303B02064FC01208300008AE790E0FC01808136
S11303C0882F90E080719927892BB1F38AE790E018
S11303D02AE730E0F90120812061FC01208389E7CC
S11303E090E0FC018081DF91CF910895CF93DF935A
S11303F000D000D0CDB7DEB79C838B8384E490E03B
S113040022E0FC01208385E490E0FC01108285E376
S113041090E027E0FC0120838EE690E0FC0110824E
S113042086E490E0FC01108287E490E029EFFC016F
S1130430208385E490E025E430E0F9012081236005
S1130440FC0120831A82198215C0000085E390E024
S1130450FC018081882F90E082709927892BB1F369
S113046085E390E023E0FC01208389819A81019651
S11304709A83898329813A818B819C812817390742
S113048020F385E490E025E430E0F90120812C7F1D
S1130490FC0120830F900F900F900F90DF91CF916C
S11304A00895AF92BF92CF92DF92EF92FF920F9393
S11304B01F93CF93DF93CDB7DEB764970FB6F8944D
S11304C0DEBF0FBECDBF69837A838B839C832D836C
S11304D03E834F835887E986FA860B871C87AD864F
S11304E0BE86CF86D88A29813A814B815C818D81F1
S11304F09E81AF81B88579018A01E81AF90A0A0B4D
S11305001B0B29A13AA14BA15CA18D859E85AF85CA
S1130510B88959016A01A81AB90ACA0ADB0AD601BC
S1130520C501A8019701BC01CD010E94A40A7B0169
S11305308C0129853A854B855C858D819E81AF81AF
S1130540B885281B390B4A0B5B0BC801B7010E9405
S1130550B40ADA01C9019C01AD018D859E85AF8580
S1130560B889820F931FA41FB51FBC01CD016496E7
S11305700FB6F894DEBF0FBECDBFDF91CF911F91B0
S11305800F91FF90EF90DF90CF90BF90AF900895C0
S1130590CF93DF93CDB7DEB7F89481E0DF91CF91AD
S11305A00895CF93DF9300D0CDB7DEB79A838983C4
S11305B08FE590E029813A81F9012081FC012083B3
S11305C00F900F90DF91CF910895CF93DF9300D0D8
S11305D000D0CDB7DEB79C838B838FE590E0FC0120
S11305E080818A830E94C802898319C02B813C813F
S11305F08B819C8180589F4FFC01318320832B8108
S11306003C818B819C818E579F4FFC0131832083D9
S11306108B819C818C579F4FFC01108219828981A8
S1130620882321F7CE0102960E94D1020F900F90E9
S11306300F900F90DF91CF910895CF93DF9300D067
S113064000D01F92CDB7DEB79D838C838FE590E0F9
S1130650FC0180818B830E94C8028A8308C08C813C
S11306609D818C579F4FFC01808189831A828A81E6
S11306708823A9F7CE0103960E94D10289810F90A5
S11306800F900F900F900F90DF91CF910895CF931B
S1130690DF9300D000D01F92CDB7DEB79C838B834D
S11306A06D838B819C8180589F4FFC018081918157
S11306B02D81FC0120838B819C8180589F4FFC01FC
S11306C0808191819C012F5F3F4F8B819C81805859
S11306D09F4FFC01318320838B819C8180589F4FE5
S11306E0FC01208131818B819C8180589F4F281788
S11306F0390749F42B813C818B819C8180589F4F21
S1130700FC01318320838FE590E0FC0180818A83A2
S11307100E94C80289830FC08B819C818C579F4F94
S1130720FC01808121E0280F8B819C818C579F4F95
S1130730FC01208319828981882371F7CE010296F6
S11307400E94D1020F900F900F900F900F90DF91A5
S1130750CF910895CF93DF9300D000D01F92CDB7EF
S1130760DEB79D838C838C819D818E579F4FFC01C6
S113077080819181FC0180818A838C819D818E5747
S11307809F4FFC01808191819C012F5F3F4F8C81A1
S11307909D818E579F4FFC01318320838C819D81E5
S11307A08E579F4FFC01208131818C819D8180581F
S11307B09F4F2817390749F42C813D818C819D81F5
S11307C08E579F4FFC01318320838FE590E0FC011D
S11307D080818B830E94C80289830FC08C819D8194
S11307E08C579F4FFC0180812FEF280F8C819D81B6
S11307F08C579F4FFC01208319828981882371F7CC
S1130800CE0103960E94D1028A810F900F900F901F
S11308100F900F90DF91CF910895CF93DF9300D085
S113082000D000D0CDB7DEB79D838C836E83198250
S11308308C819D818E579F4FFC01808191819B8388
S11308408A831CC08A819B81FC0190818E819817C8
S113085019F489818F5F89838A819B8101969B83A7
S11308608A838C819D8180589F4F2A813B812817E0
S1130870390721F48C819D819B838A838C819D819E
S113088080589F4FFC01208131818A819B812817E8
S11308903907C1F6898126960FB6F894DEBF0FBEDC
S11308A0CDBFDF91CF910895CF93DF93CDB7DEB75E
S11308B029970FB6F894DEBF0FBECDBF9D838C83FE
S11308C07F836E83488729871A8219828C819D8150
S11308D00E94AA038B839B8188859817D1F489850C
S11308E0882371F02E813F8189819A81820F931F21
S11308F02B81FC01208389819A8101969A838983C3
S11309002E813F8189819A81820F931FFC0110827D
S11309100FC02E813F8189819A81820F931F2B8181
S1130920FC01208389819A8101969A838983CECFA1
S113093029960FB6F894DEBF0FBECDBFDF91CF91DD
S113094008951F920F9200905F000F9211242F932D
S11309503F934F935F936F937F938F939F93AF9343
S1130960BF93EF93FF93CF93DF93CDB7DEB78EE4BE
S113097090E0FC01808180933F018EE490E0FC01D3
S1130980108280913F0188230CF05AC010924101DB
S113099080913F018F708093400180914001882FA6
S11309A090E0092E000CAA0BBB0B40E050E02FE0B6
S11309B030E0841B950B2817390708F43FC08C5C82
S11309C09F4FFC010C94D30A0E94E60080914401DD
S11309D081608093440133C00E94F60080914401F9
S11309E08E7F809344012BC080913F01682F85E462
S11309F091E00E9447036FEF85E491E00E94470372
S1130A001EC080913F01682F85E491E00E94470356
S1130A1016C08EE490E020914201FC0120830FC0B7
S1130A208EE490E020914301FC01208308C08EE411
S1130A3090E020914401FC01208301C0000035C0F6
S1130A40809141018F5F8093410180914001882F03
S1130A5090E08230910519F0049789F026C08091C6
S1130A603F018093420180914201853618F084E66B
S1130A7080934201809142010E94730116C08091CB
S1130A804101843088F480913F01682F85E491E02E
S1130A900E94470380914101833031F46FEF85E474
S1130AA091E00E94470300C00000DF91CF91FF91C5
S1130AB0EF91BF91AF919F918F917F916F915F91D2
S1130AC04F913F912F910F9000925F000F901F90D4
S1130AD018951F920F9200905F000F9211242F938C
S1130AE03F934F938F939F93EF93FF93CF93DF9312
S1130AF0CDB7DEB780913C01843108F0D1C080913C
S1130B003E01882F90E08130910509F447C082307E
S1130B10910509F483C0892B09F0C2C08BE290E0EF
S1130B202BE230E0F9012081422F4F7020913C01EB
S1130B30222F30E02C5E3E4FF9012081207F242BB0
S1130B40FC01208388E290E028E230E0F901208172
S1130B50422F407F20913C01222F30E02C5E3E4FFB
S1130B60F90120812F70242BFC0120838BE290E07B
S1130B702BE230E0F90120812460FC0120838BE228
S1130B8090E02BE230E0F90120812B7FFC012083EF
S1130B9080913E018F5F80933E0182C08BE290E0A2
S1130BA02BE230E0F9012081422F4F7020913C016B
S1130BB0222F30E020503F4FF9012081207F242B49
S1130BC0FC01208388E290E028E230E0F9012081F2
S1130BD0422F407F20913C01222F30E020503F4F94
S1130BE0F90120812F70242BFC0120838BE290E0FB
S1130BF02BE230E0F90120812460FC0120838BE2A8
S1130C0090E02BE230E0F90120812B7FFC0120836E
S1130C1080913E018F5F80933E0142C08BE290E061
S1130C202BE230E0F9012081422F4F7020913C01EA
S1130C30222F30E0285D3E4FF9012081207F242BB4
S1130C40FC01208388E290E028E230E0F901208171
S1130C50422F407F20913C01222F30E0285D3E4FFF
S1130C60F90120812F70242BFC0120838BE290E07A
S1130C702BE230E0F90120812460FC0120838BE227
S1130C8090E02BE230E0F90120812B7FFC012083EE
S1130C9010923E0180913C018F5F80933C010000E3
S1130CA0DF91CF91FF91EF919F918F914F913F9160
S1130CB02F910F9000925F000F901F901895CF9383
S1130CC0DF93CDB7DEB7C354D1090FB6F894DEBFB6
S1130CD00FBECDBF0E94C40085E491E00E94E502EE
S1130CE00E94B9010E947F070E94690784E10E9463
S1130CF079080E9463000E948C000E94F600809193
S1130D0042010E9406010E946301789488EE93E0F8
S1130D100E94F60110923E0110923C010E94690566
S1130D2080ED97E00E94F60163E885E491E00E947B
S1130D3047036FEF85E491E00E94470364E885E48C
S1130D4091E00E94470360E085E491E00E9447033C
S1130D5060E285E491E00E94470360E085E491E06D
S1130D600E9447036FEF85E491E00E9447030E94CD
S1130D70CE018B838B81882F90E0A0E0B0E0BC0192
S1130D80CD010E94A909DC01CB0120E030E048EC50
S1130D9052E4BC01CD010E94370ADC01CB0120E002
S1130DA030E04CE452E4BC01CD010E940809DC01AE
S1130DB0CB0120E030E048E452E4BC01CD010E94C4
S1130DC09B08DC01CB0120E030E040E05FE3BC01A4
S1130DD0CD010E949C08DC01CB01BC01CD010E9425
S1130DE07A09DC01CB018093430185E491E00E9400
S1130DF01D03882309F468C06FEF85E491E00E9425
S1130E000D04882309F460C0CE01049620E04FEF5E
S1130E10BC0185E491E00E9454048C81882F90E009
S1130E208338910521F08438910531F14DC01A823F
S1130E30198217C089819A8180509F4FFC011082CA
S1130E4089819A818C5E9E4FFC01108289819A81EE
S1130E50885D9E4FFC01108289819A8101969A8354
S1130E60898389819A81449728F310923C011092D6
S1130E703C010E94690528C01A8219821AC02D817A
S1130E8089819A8180509F4FFC0120832E81898122
S1130E909A818C5E9E4FFC0120832F8189819A81E7
S1130EA0885D9E4FFC01208389819A8101969A83F3
S1130EB0898389819A81449710F310923C0110929E
S1130EC03C010E946905000088EE93E00E94F6014F
S1130ED04ECFCF93DF93CDB7DEB789E690E028E01D
S1130EE0FC0120838CE390E022E0FC0120838DE36D
S1130EF090E022E0FC012083DF91CF910895CF930D
S1130F00DF93CDB7DEB787E290E027E230E0F90166
S1130F1020812F60FC01208388E290E028E230E009
S1130F20F9012081207FFC0120838AE290E02AE2FB
S1130F3030E0F9012081206FFC0120838BE290E0F6
S1130F402BE230E0F90120812F70FC0120838AE23A
S1130F5090E02AE230E0F90120812460FC01208342
S1130F608BE290E02BE230E0F90120812B7FFC0141
S1130F7020838AE290E02AE230E0F9012081277F91
S1130F80FC012083DF91CF910895CF93DF9300D0AC
S1130F901F92CDB7DEB789836A834B83000089E251
S1130FA090E0FC018081882F90E088709927892B3C
S1130FB0B1F78BE290E02BE230E0F9012081322F8F
S1130FC03F702A81207F232BFC01208388E290E05C
S1130FD028E230E0F9012081322F307F2A812F70FE
S1130FE0232BFC0120838BE290E02BE230E0F9011B
S1130FF020812460FC0120838BE290E02BE230E02E
S1131000F90120812B7FFC012083000089E290E01C
S1131010FC018081882F90E088709927892BB1F793
S11310208BE290E02BE230E0F9012081322F3F7017
S11310302981207F232BFC01208388E290E028E291
S113104030E0F9012081322F307F29812F70232B4A
S1131050FC0120838BE290E02BE230E0F901208157
S11310602460FC0120838BE290E02BE230E0F90164
S113107020812B7FFC012083000089E290E0FC01A9
S11310808081882F90E088709927892BB1F78BE2B3
S113109090E02BE230E0F9012081322F3F702B8168
S11310A0207F232BFC01208388E290E028E230E0BB
S11310B0F9012081322F307F2B812F70232BFC01EB
S11310C020838BE290E02BE230E0F9012081246060
S11310D0FC0120838BE290E02BE230E0F9012081D7
S11310E02B7FFC0120830F900F900F90DF91CF9105
S11310F00895CF93DF9300D01F92CDB7DEB78B83D3
S11311001A8219820AC040E060E080E00E94C507AC
S113111089819A8101969A8389838B81282F30E073
S113112089819A818217930770F30F900F900F9023
S1131130DF91CF9108955058BB27AA270E94B30886
S11311400C94FD090E94EF0938F00E94F60920F082
S113115039F49F3F19F426F40C94EC090EF4E0954D
S1131160E7FB0C94E609E92F0E940E0A58F3BA171C
S1131170620773078407950720F079F4A6F50C94A9
S1131180300A0EF4E0950B2EBA2FA02D0B01B901F5
S113119090010C01CA01A0011124FF27591B99F0E9
S11311A0593F50F4503E68F11A16F040A22F232FF5
S11311B0342F4427585FF3CF469537952795A79545
S11311C0F0405395C9F77EF41F16BA0B620B730BEC
S11311D0840BBAF09150A1F0FF0FBB1F661F771F5D
S11311E0881FC2F70EC0BA0F621F731F841F48F412
S11311F0879577956795B795F7959E3F08F0B0CF9B
S11312009395880F08F09927EE0F97958795089581
S11312100E941C090C94FD090E94F60958F00E94D2
S1131220EF0940F029F45F3F29F00C94E6095111CD
S11312300C94310A0C94EC090E940E0A68F3992369
S1131240B1F3552391F3951B550BBB27AA276217BE
S11312507307840738F09F5F5F4F220F331F441FCB
S1131260AA1FA9F335D00E2E3AF0E0E832D09150FF
S11312705040E695001CCAF72BD0FE2F29D0660FEC
S1131280771F881FBB1F261737074807AB07B0E82F
S113129009F0BB0B802DBF01FF2793585F4F3AF035
S11312A09E3F510578F00C94E6090C94310A5F3F97
S11312B0E4F3983ED4F3869577956795B795F795BB
S11312C09F5FC9F7880F911D9695879597F90895A3
S11312D0E1E0660F771F881FBB1F6217730784073F
S11312E0BA0720F0621B730B840BBA0BEE1F88F74E
S11312F0E09508950E94160A88F09F5798F0B92F38
S11313009927B751B0F0E1F0660F771F881F991F36
S11313101AF0BA95C9F714C0B13091F00E94300A9E
S1131320B1E008950C94300A672F782F8827B85FAE
S113133039F0B93FCCF3869577956795B395D9F78E
S11313403EF490958095709561957F4F8F4F9F4F98
S11313500895E89409C097FB3EF4909580957095A4
S113136061957F4F8F4F9F4F9923A9F0F92F96E9ED
S1131370BB279395F695879577956795B795F11162
S1131380F8CFFAF4BB0F11F460FF1BC06F5F7F4FFF
S11313908F4F9F4F16C0882311F096E911C0772311
S11313A021F09EE8872F762F05C0662371F096E81A
S11313B0862F70E060E02AF09A95660F771F881FE9
S11313C0DAF7880F9695879597F9089597F99F67A7
S11313D080E870E060E008959FEF80EC08950024B9
S11313E00A941616170618060906089500240A9486
S11313F012161306140605060895092E0394000C0C
S113140011F4882352F0BB0F40F4BF2B11F460FF9A
S113141004C06F5F7F4F8F4F9F4F089557FD9058C3
S1131420440F551F59F05F3F71F04795880F97FBA4
S1131430991F61F09F3F79F087950895121613065E
S11314401406551FF2CF4695F1DF08C0161617068D
S11314501806991FF1CF86957105610508940895C2
S1131460E894BB2766277727CB0197F908950E9454
S11314704A0A0C94FD090E94EF0938F00E94F6090B
S113148020F0952311F00C94E6090C94EC09112436
S11314900C94310A0E940E0A70F3959FC1F3950FC4
S11314A050E0551F629FF001729FBB27F00DB11DE4
S11314B0639FAA27F00DB11DAA1F649F6627B00D74
S11314C0A11D661F829F2227B00DA11D621F739F5D
S11314D0B00DA11D621F839FA00D611D221F749F6B
S11314E03327A00D611D231F849F600D211D822FB2
S11314F0762F6A2F11249F5750409AF0F1F08823D9
S11315004AF0EE0FFF1FBB1F661F771F881F915005
S11315105040A9F79E3F510580F00C94E6090C94C5
S1131520310A5F3FE4F3983ED4F386957795679547
S1131530B795F795E7959F5FC1F7FE2B880F911D2F
S11315409695879597F90895DB018F939F930E9451
S1131550D90ABF91AF91A29F800D911DA39F900DB9
S1131560B29F900D11240895052E97FB1EF400944C
S11315700E94CB0A57FD07D00E94E40A07FC03D05F
S11315804EF40C94CB0A50954095309521953F4FDD
S11315904F4F5F4F089590958095709561957F4F5B
S11315A08F4F9F4F0895EE0FFF1F0590F491E02D8C
S11315B009940E94060BA59F900DB49F900DA49FC3
S11315C0800D911D11240895A1E21A2EAA1BBB1BA4
S11315D0FD010DC0AA1FBB1FEE1FFF1FA217B307FB
S11315E0E407F50720F0A21BB30BE40BF50B661F11
S11315F0771F881F991F1A9469F7609570958095D5
S113160090959B01AC01BD01CF010895A29FB0014B
S1131610B39FC001A39F700D811D1124911DB29F22
S1111620700D811D1124911D0895F894FFCFC3
S113162EFFFFFFFFFF00000000000000000000FFAE
S113163EFFFFFFFF0000000000FFFFFFFFFF0000A1
S113164E000000FFFFFFFFFF00000000000000008D
S111165E0000FFFFFFFFFFFFFFFFFFFF140070
S9030000FC
